:10098A00506C61796572733A200020202000507201
:10099A0065737320546F20537461727400506C61D4
:1009AA007965722031205475726E2000506C61791D
:1009BA0065722032205475726E2000506C61796520
:1009CA00722033205475726E2000506C6179657202
:1009DA002034205475726E2000526F6C6C2044696A
:1009EA006365202020202000426F6E7573205475A5
:0509FA00726E212000D7
:100B6B000609065B4F666D7D010801011101C1008D
:0E0B7C00750801751101C200E4F590020BA688
:100ABB00E4FDFF120B597BFF7A09798A120B12E5C1
:100ACB00082430FF120B987BFF7A097994120B12D2
:100ADB00E4FD7F01120B597BFF7A097998020B1207
:100A6D00E4FDFF120B59E511B401097BFF7A0979F9
:100A7D00A7120B12E511B402097BFF7A0979B612A0
:100A8D000B12E511B403097BFF7A0979C5120B121C
:100A9D00E511B404097BFF7A0979D4120B12E4FD38
:0E0AAD007F01120B597BFF7A0979E3020B12CD
:0B0BB200758901E4F58CF58AD28C22D5
:1008000075B0FF120B37120BB2C2007508017511DB
:1008100001200048120ABB20B2127F037E00120A98
:10082000F220B208120B7C20B2DF80FB20B0197FCF
:10083000037E00120AF220B00F0508E508D39404E5
:10084000400375080130B0FD20B1C67F037E001261
:100850000AF220B1BCD20020B1B780FB120A6D2091
:10086000B2127F037E00120AF220B208120B7C2023
:10087000B29780FB20B1E57F037E00120AF220B11F
:10088000DBAF8AAD8CED2FFFE433FE7C00EF25114A
:10089000FFEC3EFEAD90EF2DFFEC3EFE7D06120A12
:1008A000188D0FE4F510E51075F00684740925F035
:1008B000F8E6F5907F147E00120AF20510E510C3E9
:1008C000940A40E27409250FF8E6F590E50FB405A7
:1008D00019E4FD7F01120B597BFF7A0979F2120BA3
:1008E000127F147E00120AF2800C0511E511D395D7
:0E08F00008400375110130B10302085C80F866
:070AEB0043B0407F027E00D2
:100AF200E4FDFCC3ED9FEC9E5015E4FBFA0BBB003A
:0F0B0200010ABA04F8BBFBF50DBD00010C80E43D
:010B110022C1
:0E0B8A008FA053B0DF120AEB53B0BF020AF285
:0E0B98008FA043B020120AEB53B0BF020AF246
:100B12008B128A138914AB12AA13A9141209FF604B
:100B2200130514E5147002051314F91209FFFF12DC
:050B32000B9880E22297
:100B5900A905EF7005E924808003E924C0FF120B81
:020B69008A22DE
:0C0BA6007F01120B8A7F057E00020AF21C
:100B37007F327E00120AF27F38120B8A7F0C120B6B
:100B47008A7F06120B8A7F01120B8A7F147E0002AE
:020B57000AF2A0
:030000000208FEF5
:0C08FE00787FE4F6D8FD758120020945E2
:1009FF00BB010689828A83E0225002E722BBFE02F6
:090A0F00E32289828A83E4932228
:100A1800BC000BBE0029EF8DF084FFADF022E4CCC2
:100A2800F875F008EF2FFFEE33FEEC33FCEE9DEC8B
:100A3800984005FCEE9DFE0FD5F0E9E4CEFD22EDD1
:100A4800F8F5F0EE8420D21CFEADF075F008EF2F1B
:100A5800FFED33FD4007985006D5F0F222C398FD0C
:050A68000FD5F0EA22A9
:10090A00020800E493A3F8E493A34003F68001F2FB
:10091A0008DFF48029E493A3F85407240CC8C333EE
:10092A00C4540F4420C8834004F456800146F6DFBD
:10093A00E4800B0102040810204080900B6BE47ED7
:10094A00019360BCA3FF543F30E509541FFEE493B2
:10095A00A360010ECF54C025E060A840B8E493A379
:10096A00FAE493A3F8E493A3C8C582C8CAC583CAA4
:10097A00F0A3C8C582C8CAC583CADFE9DEE780BE5C
:010B7B000079
:00000001FF
